{
  "contractName": "BuilderCert",
  "abi": [
    {
      "constant": false,
      "inputs": [
        {
          "name": "nameOfSignatory",
          "type": "string"
        },
        {
          "name": "designationOfSignatory",
          "type": "string"
        }
      ],
      "name": "Sign",
      "outputs": [
        {
          "name": "",
          "type": "bool"
        }
      ],
      "payable": false,
      "stateMutability": "nonpayable",
      "type": "function"
    },
    {
      "constant": true,
      "inputs": [],
      "name": "NameOfShip",
      "outputs": [
        {
          "name": "",
          "type": "string"
        }
      ],
      "payable": false,
      "stateMutability": "view",
      "type": "function"
    },
    {
      "constant": true,
      "inputs": [],
      "name": "DateOfExpiry",
      "outputs": [
        {
          "name": "",
          "type": "uint256"
        }
      ],
      "payable": false,
      "stateMutability": "view",
      "type": "function"
    },
    {
      "constant": false,
      "inputs": [
        {
          "name": "_a",
          "type": "string"
        },
        {
          "name": "_b",
          "type": "string"
        }
      ],
      "name": "stringsEqual",
      "outputs": [
        {
          "name": "",
          "type": "bool"
        }
      ],
      "payable": false,
      "stateMutability": "nonpayable",
      "type": "function"
    },
    {
      "constant": false,
      "inputs": [
        {
          "name": "_NameOfShip",
          "type": "string"
        },
        {
          "name": "_IMO",
          "type": "uint32"
        },
        {
          "name": "_HULLNumber",
          "type": "uint32"
        },
        {
          "name": "_ShipownerName",
          "type": "string"
        },
        {
          "name": "_ShopownerAddress",
          "type": "string"
        },
        {
          "name": "_DesignationOfSignatory",
          "type": "string"
        },
        {
          "name": "_PowerOfAttorney",
          "type": "string"
        },
        {
          "name": "_DateOfIssue",
          "type": "uint256"
        },
        {
          "name": "_DateOfExpiry",
          "type": "uint256"
        },
        {
          "name": "_ShipyardAddress",
          "type": "string"
        }
      ],
      "name": "UpdateInformation",
      "outputs": [],
      "payable": true,
      "stateMutability": "payable",
      "type": "function"
    },
    {
      "constant": true,
      "inputs": [],
      "name": "ShipyardAddress",
      "outputs": [
        {
          "name": "",
          "type": "string"
        }
      ],
      "payable": false,
      "stateMutability": "view",
      "type": "function"
    },
    {
      "constant": false,
      "inputs": [
        {
          "name": "newState",
          "type": "uint8"
        }
      ],
      "name": "ChangeState",
      "outputs": [],
      "payable": false,
      "stateMutability": "nonpayable",
      "type": "function"
    },
    {
      "constant": true,
      "inputs": [],
      "name": "DateOfIssue",
      "outputs": [
        {
          "name": "",
          "type": "uint256"
        }
      ],
      "payable": false,
      "stateMutability": "view",
      "type": "function"
    },
    {
      "constant": true,
      "inputs": [],
      "name": "ShopownerAddress",
      "outputs": [
        {
          "name": "",
          "type": "string"
        }
      ],
      "payable": false,
      "stateMutability": "view",
      "type": "function"
    },
    {
      "constant": false,
      "inputs": [
        {
          "name": "verifyResult",
          "type": "bool"
        }
      ],
      "name": "Verify",
      "outputs": [
        {
          "name": "",
          "type": "bool"
        }
      ],
      "payable": false,
      "stateMutability": "nonpayable",
      "type": "function"
    },
    {
      "constant": true,
      "inputs": [],
      "name": "ShipownerName",
      "outputs": [
        {
          "name": "",
          "type": "string"
        }
      ],
      "payable": false,
      "stateMutability": "view",
      "type": "function"
    },
    {
      "constant": true,
      "inputs": [],
      "name": "HULLNumber",
      "outputs": [
        {
          "name": "",
          "type": "uint32"
        }
      ],
      "payable": false,
      "stateMutability": "view",
      "type": "function"
    },
    {
      "constant": true,
      "inputs": [],
      "name": "IMO",
      "outputs": [
        {
          "name": "",
          "type": "uint32"
        }
      ],
      "payable": false,
      "stateMutability": "view",
      "type": "function"
    },
    {
      "constant": false,
      "inputs": [
        {
          "name": "start",
          "type": "uint256"
        }
      ],
      "name": "checkExpiry",
      "outputs": [
        {
          "name": "",
          "type": "bool"
        }
      ],
      "payable": false,
      "stateMutability": "nonpayable",
      "type": "function"
    },
    {
      "constant": true,
      "inputs": [],
      "name": "State",
      "outputs": [
        {
          "name": "",
          "type": "uint8"
        }
      ],
      "payable": false,
      "stateMutability": "view",
      "type": "function"
    },
    {
      "inputs": [],
      "payable": false,
      "stateMutability": "nonpayable",
      "type": "constructor"
    },
    {
      "anonymous": false,
      "inputs": [
        {
          "indexed": false,
          "name": "newState",
          "type": "uint8"
        }
      ],
      "name": "CertStateChanged",
      "type": "event"
    }
  ],
  "bytecode": "0x60606040526020604051908101604052806000815250600390805190602001906200002c929190620000f9565b506000600460006101000a81548163ffffffff021916908363ffffffff16021790555060006004806101000a81548163ffffffff021916908363ffffffff16021790555060206040519081016040528060008152506005908051906020019062000098929190620000f9565b50602060405190810160405280600081525060069080519060200190620000c1929190620000f9565b503415620000ce57600080fd5b6000600a60006101000a81548160ff02191690836003811115620000ee57fe5b0217905550620001a8565b828054600181600116156101000203166002900490600052602060002090601f016020900481019282601f106200013c57805160ff19168380011785556200016d565b828001600101855582156200016d579182015b828111156200016c5782518255916020019190600101906200014f565b5b5090506200017c919062000180565b5090565b620001a591905b80821115620001a157600081600090555060010162000187565b5090565b90565b610f5a80620001b86000396000f3006060604052600436106100db576000357c0100000000000000000000000000000000000000000000000000000000900463ffffffff1680630350d085146100e057806309e43230146101985780630f113d061461022657806313d199501461024f57806313f47205146103075780633077e3c5146104d8578063402ee26d146105665780636446ddba1461058c57806379e39dbf146105b5578063a0c1fc3814610643578063c37455ad14610680578063d8a9d5e51461070e578063da74a2d414610743578063e4357cd714610778578063f1b6dccd146107b3575b600080fd5b34156100eb57600080fd5b61017e600480803590602001908201803590602001908080601f0160208091040260200160405190810160405280939291908181526020018383808284378201915050505050509190803590602001908201803590602001908080601f016020809104026020016040519081016040528093929190818152602001838380828437820191505050505050919050506107ea565b604051808215151515815260200191505060405180910390f35b34156101a357600080fd5b6101ab61083d565b6040518080602001828103825283818151815260200191508051906020019080838360005b838110156101eb5780820151818401526020810190506101d0565b50505050905090810190601f1680156102185780820380516001836020036101000a031916815260200191505b509250505060405180910390f35b341561023157600080fd5b6102396108db565b6040518082815260200191505060405180910390f35b341561025a57600080fd5b6102ed600480803590602001908201803590602001908080601f0160208091040260200160405190810160405280939291908181526020018383808284378201915050505050509190803590602001908201803590602001908080601f016020809104026020016040519081016040528093929190818152602001838380828437820191505050505050919050506108e1565b604051808215151515815260200191505060405180910390f35b6104d6600480803590602001908201803590602001908080601f0160208091040260200160405190810160405280939291908181526020018383808284378201915050505050509190803563ffffffff1690602001909190803563ffffffff1690602001909190803590602001908201803590602001908080601f0160208091040260200160405190810160405280939291908181526020018383808284378201915050505050509190803590602001908201803590602001908080601f0160208091040260200160405190810160405280939291908181526020018383808284378201915050505050509190803590602001908201803590602001908080601f0160208091040260200160405190810160405280939291908181526020018383808284378201915050505050509190803590602001908201803590602001908080601f0160208091040260200160405190810160405280939291908181526020018383808284378201915050505050509190803590602001909190803590602001909190803590602001908201803590602001908080601f01602080910402602001604051908101604052809392919081815260200183838082843782019150505050505091905050610a3e565b005b34156104e357600080fd5b6104eb610aff565b6040518080602001828103825283818151815260200191508051906020019080838360005b8381101561052b578082015181840152602081019050610510565b50505050905090810190601f1680156105585780820380516001836020036101000a031916815260200191505b509250505060405180910390f35b341561057157600080fd5b61058a600480803560ff16906020019091905050610b9d565b005b341561059757600080fd5b61059f610c08565b6040518082815260200191505060405180910390f35b34156105c057600080fd5b6105c8610c0e565b6040518080602001828103825283818151815260200191508051906020019080838360005b838110156106085780820151818401526020810190506105ed565b50505050905090810190601f1680156106355780820380516001836020036101000a031916815260200191505b509250505060405180910390f35b341561064e57600080fd5b61066660048080351515906020019091905050610cac565b604051808215151515815260200191505060405180910390f35b341561068b57600080fd5b610693610d82565b6040518080602001828103825283818151815260200191508051906020019080838360005b838110156106d35780820151818401526020810190506106b8565b50505050905090810190601f1680156107005780820380516001836020036101000a031916815260200191505b509250505060405180910390f35b341561071957600080fd5b610721610e20565b604051808263ffffffff1663ffffffff16815260200191505060405180910390f35b341561074e57600080fd5b610756610e35565b604051808263ffffffff1663ffffffff16815260200191505060405180910390f35b341561078357600080fd5b6107996004808035906020019091905050610e4b565b604051808215151515815260200191505060405180910390f35b34156107be57600080fd5b6107c6610e62565b604051808260038111156107d657fe5b60ff16815260200191505060405180910390f35b6000426000800181905550826000600101908051906020019061080e929190610e75565b508160006002019080519060200190610828929190610e75565b506108336003610b9d565b6001905092915050565b60038054600181600116156101000203166002900480601f0160208091040260200160405190810160405280929190818152602001828054600181600116156101000203166002900480156108d35780601f106108a8576101008083540402835291602001916108d3565b820191906000526020600020905b8154815290600101906020018083116108b657829003601f168201915b505050505081565b60085481565b60006108eb610ef5565b6108f3610ef5565b60008592508491508151835114151561090f5760009350610a35565b600090505b8251811015610a3057818181518110151561092b57fe5b9060200101517f010000000000000000000000000000000000000000000000000000000000000090047f0100000000000000000000000000000000000000000000000000000000000000027effffffffffffffffffffffffffffffffffffffffffffffffffffffffffffff191683828151811015156109a657fe5b9060200101517f010000000000000000000000000000000000000000000000000000000000000090047f0100000000000000000000000000000000000000000000000000000000000000027effffffffffffffffffffffffffffffffffffffffffffffffffffffffffffff1916141515610a235760009350610a35565b8080600101915050610914565b600193505b50505092915050565b8960039080519060200190610a54929190610e75565b5088600460006101000a81548163ffffffff021916908363ffffffff160217905550876004806101000a81548163ffffffff021916908363ffffffff1602179055508660059080519060200190610aac929190610e75565b508560069080519060200190610ac3929190610e75565b5082600781905550816008819055508060099080519060200190610ae8929190610e75565b50610af36001610b9d565b50505050505050505050565b60098054600181600116156101000203166002900480601f016020809104026020016040519081016040528092919081815260200182805460018160011615610100020316600290048015610b955780601f10610b6a57610100808354040283529160200191610b95565b820191906000526020600020905b815481529060010190602001808311610b7857829003601f168201915b505050505081565b80600a60006101000a81548160ff02191690836003811115610bbb57fe5b02179055507f6c6b704435ce5cf188c70ed4ad176105ee7c7287c2e065a1d3b87c1e33ea030e8160405180826003811115610bf257fe5b60ff16815260200191505060405180910390a150565b60075481565b60068054600181600116156101000203166002900480601f016020809104026020016040519081016040528092919081815260200182805460018160011615610100020316600290048015610ca45780601f10610c7957610100808354040283529160200191610ca4565b820191906000526020600020905b815481529060010190602001808311610c8757829003601f168201915b505050505081565b6000806003811115610cba57fe5b600a60009054906101000a900460ff166003811115610cd557fe5b141515610ce157600080fd5b8115610d32577f6c6b704435ce5cf188c70ed4ad176105ee7c7287c2e065a1d3b87c1e33ea030e600260405180826003811115610d1a57fe5b60ff16815260200191505060405180910390a1610d79565b7f6c6b704435ce5cf188c70ed4ad176105ee7c7287c2e065a1d3b87c1e33ea030e600160405180826003811115610d6557fe5b60ff16815260200191505060405180910390a15b60019050919050565b60058054600181600116156101000203166002900480601f016020809104026020016040519081016040528092919081815260200182805460018160011615610100020316600290048015610e185780601f10610ded57610100808354040283529160200191610e18565b820191906000526020600020905b815481529060010190602001808311610dfb57829003601f168201915b505050505081565b6004809054906101000a900463ffffffff1681565b600460009054906101000a900463ffffffff1681565b60006008546301e133806007540110159050919050565b600a60009054906101000a900460ff1681565b828054600181600116156101000203166002900490600052602060002090601f016020900481019282601f10610eb657805160ff1916838001178555610ee4565b82800160010185558215610ee4579182015b82811115610ee3578251825591602001919060010190610ec8565b5b509050610ef19190610f09565b5090565b602060405190810160405280600081525090565b610f2b91905b80821115610f27576000816000905550600101610f0f565b5090565b905600a165627a7a72305820faeeaf2ec17095fca710fb205f0ae3fdc3347b68723da8eaa4318a2fb6b6e7cc0029",
  "source": "pragma solidity ^0.4.18;\n\ncontract BuilderCert {\n/*\n\t• Full Name of the ship\n\t• IMO Number of the Ship (Permanent, won't change)\n\t• HULL Number (Project number, per-ship, won't change)\n\t• Ship Owner's name\n\t• Shop Owner's full registration address (as per ACRA)\n\t• Date of Builder cert\n\t• Identity of person who signs the cert\n\t• Designation of signatory\n\t• Date of Expiry\n\t• Shipyard address (where the ship is built)\n\tPower of Attorney\n\t\t○ Date of POA is signed\n\t\t○ Name of signatory\n\t\t○ Designation of signatory\n\t- From Blockchain's perspective\n\t\t○ From\n\t\t\t§ Shipyard\n\t\t○ To\n\t\t\t§ Shipowner\n\t\t○ Accessed by\n\t\t\t§ MPA & Shipowner\n\t- UI\n\t\t○ Put info for issuing Builder Cert\n\t\t○ Owner -> See transactions\n    MPA -> See cert info\n*/    \n\n\n    function stringsEqual(string memory _a, string memory _b)  returns (bool) {\n                bytes memory a = bytes(_a);\n                bytes memory b = bytes(_b);\n                if (a.length != b.length) {\n                        return false;\n        }\n\n                for (uint i = 0; i < a.length; i ++) {\n                        if (a[i] != b[i])\n                                return false;\n        }\n                return true;\n\t}\n\n\tevent CertStateChanged(ContractStates newState);\n\t\n    enum ContractStates {Initiated, OwnerVerify, Completed, Signed }\n\t\n    struct PowerOfAttorney {\n        uint DateOfPOA;\n        string NameOfSignatory;\n        string DesignationOfSignatory;\n    }\n    PowerOfAttorney POA;\n    string public NameOfShip = \"\";\n    uint32 public IMO = 0;\n    uint32 public HULLNumber = 0;\n    string public ShipownerName = \"\";\n    string public ShopownerAddress =\"\";\n    uint public DateOfIssue;\n    uint public DateOfExpiry;\n    string public ShipyardAddress;\n\tContractStates public State;\n\n    function checkExpiry(uint start) public returns (bool) {\n        return DateOfIssue + 1 years >= DateOfExpiry;\n    }\n\n    function BuilderCert() {\n\t\tState = ContractStates.Initiated;\n    }\n\t/*\n\t        uint DateOfPOA;\n        string NameOfSignatory;\n        string DesignationOfSignatory;\n\t*/\n\tfunction Sign(string nameOfSignatory, string designationOfSignatory) public returns (bool) {\n/*\n\t\trequire(\n\t\t\t!stringsEqual(nameOfSignatory,\"\") &&\n\t\t\t!stringsEqual(designationOfSignatory,\"\"));\n\n\t\trequire( !stringsEqual(\"\", NameOfShip) && \n                (IMO > 0) && \n                (HULLNumber > 0) && !stringsEqual(\"\",ShipownerName) &&\n\t\t\t\t!stringsEqual(\"\",ShopownerAddress) &&\n\t\t\t\tDateOfIssue > 0 &&\n\t\t\t\tDateOfExpiry > 0 &&\n\t\t\t\t!stringsEqual(\"\",ShipyardAddress) &&\n\t\t\t\tState == ContractStates.Completed);\n*/\n\t\tPOA.DateOfPOA = now;\n\t\tPOA.NameOfSignatory = nameOfSignatory;\n\t\tPOA.DesignationOfSignatory = designationOfSignatory;\n\t\tChangeState(ContractStates.Signed);\n\t\treturn true;\n\t}\n\tfunction ChangeState(ContractStates newState) {\n\t\tState = newState;\n\t\tCertStateChanged(newState);\n\t}\n\tfunction Verify(bool verifyResult) public returns (bool) {\n\t\trequire(State == ContractStates.Initiated);\n\t\t\n\t\tif(verifyResult) {\n\t\t\tCertStateChanged(ContractStates.Completed);\n\t\t} else {\n\t\t\tCertStateChanged(ContractStates.OwnerVerify);\n\t\t}\n\t\t\n\t\treturn true;\n\t}\n    function UpdateInformation (string  _NameOfShip,\n                                uint32  _IMO,\n                                uint32  _HULLNumber,\n                                string  _ShipownerName,\n                                string  _ShopownerAddress,\n                                string  _DesignationOfSignatory ,\n                                string  _PowerOfAttorney ,\n                                uint  _DateOfIssue,\n                                uint  _DateOfExpiry,\n                                string  _ShipyardAddress) public payable {\n\t\tNameOfShip =  _NameOfShip;\n\t\tIMO = _IMO;\n\t\tHULLNumber = _HULLNumber;\n\t\tShipownerName = _ShipownerName;\n\t\tShopownerAddress = _ShopownerAddress;\n\t\tDateOfIssue = _DateOfIssue;\n\t\tDateOfExpiry = _DateOfExpiry;\n\t\tShipyardAddress = _ShipyardAddress;\n\t\t\t\n\t\tChangeState(ContractStates.OwnerVerify);\t\n    }\n\n}\n\n\n",
  "sourcePath": "/home/srstrufadmin/hackfest/contracts/BuilderCert.sol",
  "compiler": {
    "name": "solc",
    "version": "0.4.18+commit.9cf6e910.Emscripten.clang"
  },
  "schemaVersion": "1.0.1",
  "updatedAt": "2018-01-25T06:01:24.701Z"
}