{
  "contractName": "BuilderCert",
  "abi": [
    {
      "constant": false,
      "inputs": [
        {
          "name": "nameOfSignatory",
          "type": "string"
        },
        {
          "name": "designationOfSignatory",
          "type": "string"
        }
      ],
      "name": "Sign",
      "outputs": [
        {
          "name": "",
          "type": "bool"
        }
      ],
      "payable": false,
      "stateMutability": "nonpayable",
      "type": "function"
    },
    {
      "constant": true,
      "inputs": [],
      "name": "NameOfShip",
      "outputs": [
        {
          "name": "",
          "type": "string"
        }
      ],
      "payable": false,
      "stateMutability": "view",
      "type": "function"
    },
    {
      "constant": true,
      "inputs": [],
      "name": "ClassSociety",
      "outputs": [
        {
          "name": "",
          "type": "string"
        }
      ],
      "payable": false,
      "stateMutability": "view",
      "type": "function"
    },
    {
      "constant": true,
      "inputs": [],
      "name": "OfficialNo",
      "outputs": [
        {
          "name": "",
          "type": "string"
        }
      ],
      "payable": false,
      "stateMutability": "view",
      "type": "function"
    },
    {
      "constant": false,
      "inputs": [
        {
          "name": "name",
          "type": "string"
        },
        {
          "name": "addr",
          "type": "string"
        },
        {
          "name": "mobileNo",
          "type": "string"
        },
        {
          "name": "phoneNo",
          "type": "string"
        },
        {
          "name": "eMail",
          "type": "string"
        },
        {
          "name": "contractPerson",
          "type": "string"
        },
        {
          "name": "statusInCompany",
          "type": "string"
        },
        {
          "name": "accountNumber",
          "type": "string"
        },
        {
          "name": "uem",
          "type": "string"
        },
        {
          "name": "ismCompanyName",
          "type": "string"
        }
      ],
      "name": "UpdateManagerInfo",
      "outputs": [],
      "payable": true,
      "stateMutability": "payable",
      "type": "function"
    },
    {
      "constant": true,
      "inputs": [],
      "name": "ShipyardAddress",
      "outputs": [
        {
          "name": "",
          "type": "string"
        }
      ],
      "payable": false,
      "stateMutability": "view",
      "type": "function"
    },
    {
      "constant": false,
      "inputs": [
        {
          "name": "newState",
          "type": "uint8"
        }
      ],
      "name": "ChangeState",
      "outputs": [],
      "payable": false,
      "stateMutability": "nonpayable",
      "type": "function"
    },
    {
      "constant": true,
      "inputs": [],
      "name": "CallSign",
      "outputs": [
        {
          "name": "",
          "type": "string"
        }
      ],
      "payable": false,
      "stateMutability": "view",
      "type": "function"
    },
    {
      "constant": false,
      "inputs": [],
      "name": "GetManagerContactInfo",
      "outputs": [
        {
          "name": "",
          "type": "string"
        },
        {
          "name": "",
          "type": "string"
        },
        {
          "name": "",
          "type": "string"
        },
        {
          "name": "",
          "type": "string"
        },
        {
          "name": "",
          "type": "string"
        },
        {
          "name": "",
          "type": "string"
        }
      ],
      "payable": false,
      "stateMutability": "nonpayable",
      "type": "function"
    },
    {
      "constant": false,
      "inputs": [],
      "name": "GetShipownerInfo",
      "outputs": [
        {
          "name": "",
          "type": "uint256"
        },
        {
          "name": "",
          "type": "uint256"
        },
        {
          "name": "",
          "type": "uint256"
        },
        {
          "name": "",
          "type": "uint256"
        }
      ],
      "payable": false,
      "stateMutability": "nonpayable",
      "type": "function"
    },
    {
      "constant": true,
      "inputs": [],
      "name": "ScreenshotHash",
      "outputs": [
        {
          "name": "",
          "type": "string"
        }
      ],
      "payable": false,
      "stateMutability": "view",
      "type": "function"
    },
    {
      "constant": true,
      "inputs": [],
      "name": "ShopownerAddress",
      "outputs": [
        {
          "name": "",
          "type": "string"
        }
      ],
      "payable": false,
      "stateMutability": "view",
      "type": "function"
    },
    {
      "constant": false,
      "inputs": [],
      "name": "GetManagerInfo",
      "outputs": [
        {
          "name": "",
          "type": "string"
        },
        {
          "name": "",
          "type": "string"
        },
        {
          "name": "",
          "type": "string"
        },
        {
          "name": "",
          "type": "string"
        }
      ],
      "payable": false,
      "stateMutability": "nonpayable",
      "type": "function"
    },
    {
      "constant": false,
      "inputs": [
        {
          "name": "nameOfShip",
          "type": "string"
        },
        {
          "name": "imo",
          "type": "uint32"
        },
        {
          "name": "officialNo",
          "type": "string"
        },
        {
          "name": "shipownerName",
          "type": "string"
        },
        {
          "name": "shipAddress",
          "type": "string"
        },
        {
          "name": "callsign",
          "type": "string"
        },
        {
          "name": "classSociety",
          "type": "string"
        },
        {
          "name": "hashString",
          "type": "string"
        }
      ],
      "name": "RequestBuilderCert",
      "outputs": [],
      "payable": true,
      "stateMutability": "payable",
      "type": "function"
    },
    {
      "constant": false,
      "inputs": [],
      "name": "GetSupportingDocsInfo",
      "outputs": [
        {
          "name": "",
          "type": "string"
        },
        {
          "name": "",
          "type": "string"
        }
      ],
      "payable": false,
      "stateMutability": "nonpayable",
      "type": "function"
    },
    {
      "constant": true,
      "inputs": [],
      "name": "HullMaterial",
      "outputs": [
        {
          "name": "",
          "type": "string"
        }
      ],
      "payable": false,
      "stateMutability": "view",
      "type": "function"
    },
    {
      "constant": false,
      "inputs": [
        {
          "name": "verifyResult",
          "type": "bool"
        }
      ],
      "name": "Verify",
      "outputs": [
        {
          "name": "",
          "type": "bool"
        }
      ],
      "payable": false,
      "stateMutability": "nonpayable",
      "type": "function"
    },
    {
      "constant": true,
      "inputs": [],
      "name": "Country",
      "outputs": [
        {
          "name": "",
          "type": "string"
        }
      ],
      "payable": false,
      "stateMutability": "view",
      "type": "function"
    },
    {
      "constant": false,
      "inputs": [],
      "name": "GetPOA",
      "outputs": [
        {
          "name": "",
          "type": "string"
        },
        {
          "name": "",
          "type": "string"
        },
        {
          "name": "",
          "type": "uint256"
        }
      ],
      "payable": false,
      "stateMutability": "nonpayable",
      "type": "function"
    },
    {
      "constant": false,
      "inputs": [
        {
          "name": "shipyardName",
          "type": "string"
        },
        {
          "name": "shipyardAddress",
          "type": "string"
        },
        {
          "name": "hullNumber",
          "type": "uint256"
        },
        {
          "name": "country",
          "type": "string"
        },
        {
          "name": "hullMaterial",
          "type": "string"
        },
        {
          "name": "designation",
          "type": "string"
        },
        {
          "name": "singatory",
          "type": "string"
        }
      ],
      "name": "SubmitBuilderCertVerification",
      "outputs": [],
      "payable": true,
      "stateMutability": "payable",
      "type": "function"
    },
    {
      "constant": true,
      "inputs": [],
      "name": "ShipownerName",
      "outputs": [
        {
          "name": "",
          "type": "string"
        }
      ],
      "payable": false,
      "stateMutability": "view",
      "type": "function"
    },
    {
      "constant": true,
      "inputs": [],
      "name": "HULLNumber",
      "outputs": [
        {
          "name": "",
          "type": "uint256"
        }
      ],
      "payable": false,
      "stateMutability": "view",
      "type": "function"
    },
    {
      "constant": true,
      "inputs": [],
      "name": "IMO",
      "outputs": [
        {
          "name": "",
          "type": "uint32"
        }
      ],
      "payable": false,
      "stateMutability": "view",
      "type": "function"
    },
    {
      "constant": true,
      "inputs": [],
      "name": "ShipyardName",
      "outputs": [
        {
          "name": "",
          "type": "string"
        }
      ],
      "payable": false,
      "stateMutability": "view",
      "type": "function"
    },
    {
      "constant": false,
      "inputs": [
        {
          "name": "mobileNo",
          "type": "string"
        },
        {
          "name": "phoneNo",
          "type": "string"
        },
        {
          "name": "email",
          "type": "string"
        },
        {
          "name": "country",
          "type": "string"
        },
        {
          "name": "nationality",
          "type": "string"
        },
        {
          "name": "numberOfShares",
          "type": "uint256"
        },
        {
          "name": "paidUpCapital",
          "type": "uint256"
        },
        {
          "name": "localEquity",
          "type": "uint256"
        },
        {
          "name": "foreignEquity",
          "type": "uint256"
        }
      ],
      "name": "UpdateShipownerInfo",
      "outputs": [],
      "payable": true,
      "stateMutability": "payable",
      "type": "function"
    },
    {
      "constant": false,
      "inputs": [
        {
          "name": "acra",
          "type": "string"
        },
        {
          "name": "builderCert",
          "type": "string"
        }
      ],
      "name": "UpdateDocuments",
      "outputs": [],
      "payable": true,
      "stateMutability": "payable",
      "type": "function"
    },
    {
      "constant": false,
      "inputs": [],
      "name": "GetShipownerContactInfo",
      "outputs": [
        {
          "name": "",
          "type": "string"
        },
        {
          "name": "",
          "type": "string"
        },
        {
          "name": "",
          "type": "string"
        },
        {
          "name": "",
          "type": "string"
        },
        {
          "name": "",
          "type": "string"
        }
      ],
      "payable": false,
      "stateMutability": "nonpayable",
      "type": "function"
    },
    {
      "inputs": [],
      "payable": false,
      "stateMutability": "nonpayable",
      "type": "constructor"
    },
    {
      "anonymous": false,
      "inputs": [
        {
          "indexed": false,
          "name": "newState",
          "type": "uint8"
        }
      ],
      "name": "CertStateChanged",
      "type": "event"
    }
  ],
  "bytecode": "0x60606040526020604051908101604052806000815250600190805190602001906200002c929190620001fb565b506000600260006101000a81548163ffffffff021916908363ffffffff16021790555060206040519081016040528060008152506003908051906020019062000077929190620001fb565b50602060405190810160405280600081525060049080519060200190620000a0929190620001fb565b50602060405190810160405280600081525060059080519060200190620000c9929190620001fb565b50602060405190810160405280600081525060069080519060200190620000f2929190620001fb565b506020604051908101604052806000815250600790805190602001906200011b929190620001fb565b5060206040519081016040528060008152506008908051906020019062000144929190620001fb565b506020604051908101604052806000815250600c90805190602001906200016d929190620001fb565b506000600e556020604051908101604052806000815250600f90805190602001906200019b929190620001fb565b50602060405190810160405280600081525060109080519060200190620001c4929190620001fb565b503415620001d157600080fd5b60008060006101000a81548160ff02191690836003811115620001f057fe5b0217905550620002aa565b828054600181600116156101000203166002900490600052602060002090601f016020900481019282601f106200023e57805160ff19168380011785556200026f565b828001600101855582156200026f579182015b828111156200026e57825182559160200191906001019062000251565b5b5090506200027e919062000282565b5090565b620002a791905b80821115620002a357600081600090555060010162000289565b5090565b90565b61342180620002ba6000396000f30060606040526004361061015f576000357c0100000000000000000000000000000000000000000000000000000000900463ffffffff1680630350d0851461016457806309e432301461021c5780630fe921e8146102aa5780631598da59146103385780632eca607d146103c65780633077e3c514610673578063402ee26d146107015780634048abaa146107275780635212e815146107b557806372a925b214610a5f578063751ee2fb14610a9d57806379e39dbf14610b2b57806394c33f6814610bb957806397519c3314610d8b5780639a8385a514610f7e5780639df8a7c814611078578063a0c1fc3814611106578063aff65cfe14611143578063b7ef2aba146111d1578063c28ff577146112d2578063c37455ad1461147c578063d8a9d5e51461150a578063da74a2d414611533578063db48f19814611568578063e0db2e07146115f6578063eaf8d3f214611778578063f7620ee71461180d575b600080fd5b341561016f57600080fd5b610202600480803590602001908201803590602001908080601f0160208091040260200160405190810160405280939291908181526020018383808284378201915050505050509190803590602001908201803590602001908080601f01602080910402602001604051908101604052809392919081815260200183838082843782019150505050505091905050611a4b565b604051808215151515815260200191505060405180910390f35b341561022757600080fd5b61022f611a9f565b6040518080602001828103825283818151815260200191508051906020019080838360005b8381101561026f578082015181840152602081019050610254565b50505050905090810190601f16801561029c5780820380516001836020036101000a031916815260200191505b509250505060405180910390f35b34156102b557600080fd5b6102bd611b3d565b6040518080602001828103825283818151815260200191508051906020019080838360005b838110156102fd5780820151818401526020810190506102e2565b50505050905090810190601f16801561032a5780820380516001836020036101000a031916815260200191505b509250505060405180910390f35b341561034357600080fd5b61034b611bdb565b6040518080602001828103825283818151815260200191508051906020019080838360005b8381101561038b578082015181840152602081019050610370565b50505050905090810190601f1680156103b85780820380516001836020036101000a031916815260200191505b509250505060405180910390f35b610671600480803590602001908201803590602001908080601f0160208091040260200160405190810160405280939291908181526020018383808284378201915050505050509190803590602001908201803590602001908080601f0160208091040260200160405190810160405280939291908181526020018383808284378201915050505050509190803590602001908201803590602001908080601f0160208091040260200160405190810160405280939291908181526020018383808284378201915050505050509190803590602001908201803590602001908080601f0160208091040260200160405190810160405280939291908181526020018383808284378201915050505050509190803590602001908201803590602001908080601f0160208091040260200160405190810160405280939291908181526020018383808284378201915050505050509190803590602001908201803590602001908080601f0160208091040260200160405190810160405280939291908181526020018383808284378201915050505050509190803590602001908201803590602001908080601f0160208091040260200160405190810160405280939291908181526020018383808284378201915050505050509190803590602001908201803590602001908080601f0160208091040260200160405190810160405280939291908181526020018383808284378201915050505050509190803590602001908201803590602001908080601f0160208091040260200160405190810160405280939291908181526020018383808284378201915050505050509190803590602001908201803590602001908080601f01602080910402602001604051908101604052809392919081815260200183838082843782019150505050505091905050611c79565b005b341561067e57600080fd5b610686611d89565b6040518080602001828103825283818151815260200191508051906020019080838360005b838110156106c65780820151818401526020810190506106ab565b50505050905090810190601f1680156106f35780820380516001836020036101000a031916815260200191505b509250505060405180910390f35b341561070c57600080fd5b610725600480803560ff16906020019091905050611e27565b005b341561073257600080fd5b61073a611e91565b6040518080602001828103825283818151815260200191508051906020019080838360005b8381101561077a57808201518184015260208101905061075f565b50505050905090810190601f1680156107a75780820380516001836020036101000a031916815260200191505b509250505060405180910390f35b34156107c057600080fd5b6107c8611f2f565b6040518080602001806020018060200180602001806020018060200187810387528d818151815260200191508051906020019080838360005b8381101561081c578082015181840152602081019050610801565b50505050905090810190601f1680156108495780820380516001836020036101000a031916815260200191505b5087810386528c818151815260200191508051906020019080838360005b83811015610882578082015181840152602081019050610867565b50505050905090810190601f1680156108af5780820380516001836020036101000a031916815260200191505b5087810385528b818151815260200191508051906020019080838360005b838110156108e85780820151818401526020810190506108cd565b50505050905090810190601f1680156109155780820380516001836020036101000a031916815260200191505b5087810384528a818151815260200191508051906020019080838360005b8381101561094e578082015181840152602081019050610933565b50505050905090810190601f16801561097b5780820380516001836020036101000a031916815260200191505b50878103835289818151815260200191508051906020019080838360005b838110156109b4578082015181840152602081019050610999565b50505050905090810190601f1680156109e15780820380516001836020036101000a031916815260200191505b50878103825288818151815260200191508051906020019080838360005b83811015610a1a5780820151818401526020810190506109ff565b50505050905090810190601f168015610a475780820380516001836020036101000a031916815260200191505b509c5050505050505050505050505060405180910390f35b3415610a6a57600080fd5b610a72612339565b6040518085815260200184815260200183815260200182815260200194505050505060405180910390f35b3415610aa857600080fd5b610ab0612365565b6040518080602001828103825283818151815260200191508051906020019080838360005b83811015610af0578082015181840152602081019050610ad5565b50505050905090810190601f168015610b1d5780820380516001836020036101000a031916815260200191505b509250505060405180910390f35b3415610b3657600080fd5b610b3e612403565b6040518080602001828103825283818151815260200191508051906020019080838360005b83811015610b7e578082015181840152602081019050610b63565b50505050905090810190601f168015610bab5780820380516001836020036101000a031916815260200191505b509250505060405180910390f35b3415610bc457600080fd5b610bcc6124a1565b6040518080602001806020018060200180602001858103855289818151815260200191508051906020019080838360005b83811015610c18578082015181840152602081019050610bfd565b50505050905090810190601f168015610c455780820380516001836020036101000a031916815260200191505b50858103845288818151815260200191508051906020019080838360005b83811015610c7e578082015181840152602081019050610c63565b50505050905090810190601f168015610cab5780820380516001836020036101000a031916815260200191505b50858103835287818151815260200191508051906020019080838360005b83811015610ce4578082015181840152602081019050610cc9565b50505050905090810190601f168015610d115780820380516001836020036101000a031916815260200191505b50858103825286818151815260200191508051906020019080838360005b83811015610d4a578082015181840152602081019050610d2f565b50505050905090810190601f168015610d775780820380516001836020036101000a031916815260200191505b509850505050505050505060405180910390f35b610f7c600480803590602001908201803590602001908080601f0160208091040260200160405190810160405280939291908181526020018383808284378201915050505050509190803563ffffffff1690602001909190803590602001908201803590602001908080601f0160208091040260200160405190810160405280939291908181526020018383808284378201915050505050509190803590602001908201803590602001908080601f0160208091040260200160405190810160405280939291908181526020018383808284378201915050505050509190803590602001908201803590602001908080601f0160208091040260200160405190810160405280939291908181526020018383808284378201915050505050509190803590602001908201803590602001908080601f0160208091040260200160405190810160405280939291908181526020018383808284378201915050505050509190803590602001908201803590602001908080601f0160208091040260200160405190810160405280939291908181526020018383808284378201915050505050509190803590602001908201803590602001908080601f01602080910402602001604051908101604052809392919081815260200183838082843782019150505050505091905050612753565b005b3415610f8957600080fd5b610f9161281f565b604051808060200180602001838103835285818151815260200191508051906020019080838360005b83811015610fd5578082015181840152602081019050610fba565b50505050905090810190601f1680156110025780820380516001836020036101000a031916815260200191505b50838103825284818151815260200191508051906020019080838360005b8381101561103b578082015181840152602081019050611020565b50505050905090810190601f1680156110685780820380516001836020036101000a031916815260200191505b5094505050505060405180910390f35b341561108357600080fd5b61108b612979565b6040518080602001828103825283818151815260200191508051906020019080838360005b838110156110cb5780820151818401526020810190506110b0565b50505050905090810190601f1680156110f85780820380516001836020036101000a031916815260200191505b509250505060405180910390f35b341561111157600080fd5b61112960048080351515906020019091905050612a17565b604051808215151515815260200191505060405180910390f35b341561114e57600080fd5b611156612aec565b6040518080602001828103825283818151815260200191508051906020019080838360005b8381101561119657808201518184015260208101905061117b565b50505050905090810190601f1680156111c35780820380516001836020036101000a031916815260200191505b509250505060405180910390f35b34156111dc57600080fd5b6111e4612b8a565b604051808060200180602001848152602001838103835286818151815260200191508051906020019080838360005b8381101561122e578082015181840152602081019050611213565b50505050905090810190601f16801561125b5780820380516001836020036101000a031916815260200191505b50838103825285818151815260200191508051906020019080838360005b83811015611294578082015181840152602081019050611279565b50505050905090810190601f1680156112c15780820380516001836020036101000a031916815260200191505b509550505050505060405180910390f35b61147a600480803590602001908201803590602001908080601f0160208091040260200160405190810160405280939291908181526020018383808284378201915050505050509190803590602001908201803590602001908080601f0160208091040260200160405190810160405280939291908181526020018383808284378201915050505050509190803590602001909190803590602001908201803590602001908080601f0160208091040260200160405190810160405280939291908181526020018383808284378201915050505050509190803590602001908201803590602001908080601f0160208091040260200160405190810160405280939291908181526020018383808284378201915050505050509190803590602001908201803590602001908080601f0160208091040260200160405190810160405280939291908181526020018383808284378201915050505050509190803590602001908201803590602001908080601f01602080910402602001604051908101604052809392919081815260200183838082843782019150505050505091905050612cef565b005b341561148757600080fd5b61148f612d99565b6040518080602001828103825283818151815260200191508051906020019080838360005b838110156114cf5780820151818401526020810190506114b4565b50505050905090810190601f1680156114fc5780820380516001836020036101000a031916815260200191505b509250505060405180910390f35b341561151557600080fd5b61151d612e37565b6040518082815260200191505060405180910390f35b341561153e57600080fd5b611546612e3d565b604051808263ffffffff1663ffffffff16815260200191505060405180910390f35b341561157357600080fd5b61157b612e53565b6040518080602001828103825283818151815260200191508051906020019080838360005b838110156115bb5780820151818401526020810190506115a0565b50505050905090810190601f1680156115e85780820380516001836020036101000a031916815260200191505b509250505060405180910390f35b611776600480803590602001908201803590602001908080601f0160208091040260200160405190810160405280939291908181526020018383808284378201915050505050509190803590602001908201803590602001908080601f0160208091040260200160405190810160405280939291908181526020018383808284378201915050505050509190803590602001908201803590602001908080601f0160208091040260200160405190810160405280939291908181526020018383808284378201915050505050509190803590602001908201803590602001908080601f0160208091040260200160405190810160405280939291908181526020018383808284378201915050505050509190803590602001908201803590602001908080601f01602080910402602001604051908101604052809392919081815260200183838082843782019150505050505091908035906020019091908035906020019091908035906020019091908035906020019091905050612ef1565b005b61180b600480803590602001908201803590602001908080601f0160208091040260200160405190810160405280939291908181526020018383808284378201915050505050509190803590602001908201803590602001908080601f01602080910402602001604051908101604052809392919081815260200183838082843782019150505050505091905050612fa6565b005b341561181857600080fd5b611820612fde565b60405180806020018060200180602001806020018060200186810386528b818151815260200191508051906020019080838360005b83811015611870578082015181840152602081019050611855565b50505050905090810190601f16801561189d5780820380516001836020036101000a031916815260200191505b5086810385528a818151815260200191508051906020019080838360005b838110156118d65780820151818401526020810190506118bb565b50505050905090810190601f1680156119035780820380516001836020036101000a031916815260200191505b50868103845289818151815260200191508051906020019080838360005b8381101561193c578082015181840152602081019050611921565b50505050905090810190601f1680156119695780820380516001836020036101000a031916815260200191505b50868103835288818151815260200191508051906020019080838360005b838110156119a2578082015181840152602081019050611987565b50505050905090810190601f1680156119cf5780820380516001836020036101000a031916815260200191505b50868103825287818151815260200191508051906020019080838360005b83811015611a085780820151818401526020810190506119ed565b50505050905090810190601f168015611a355780820380516001836020036101000a031916815260200191505b509a505050505050505050505060405180910390f35b6000426009600001819055508260096001019080519060200190611a7092919061333c565b508160096002019080519060200190611a8a92919061333c565b50611a956003611e27565b6001905092915050565b60018054600181600116156101000203166002900480601f016020809104026020016040519081016040528092919081815260200182805460018160011615610100020316600290048015611b355780601f10611b0a57610100808354040283529160200191611b35565b820191906000526020600020905b815481529060010190602001808311611b1857829003601f168201915b505050505081565b60078054600181600116156101000203166002900480601f016020809104026020016040519081016040528092919081815260200182805460018160011615610100020316600290048015611bd35780601f10611ba857610100808354040283529160200191611bd3565b820191906000526020600020905b815481529060010190602001808311611bb657829003601f168201915b505050505081565b60038054600181600116156101000203166002900480601f016020809104026020016040519081016040528092919081815260200182805460018160011615610100020316600290048015611c715780601f10611c4657610100808354040283529160200191611c71565b820191906000526020600020905b815481529060010190602001808311611c5457829003601f168201915b505050505081565b89601a6000019080519060200190611c9292919061333c565b5088601a6001019080519060200190611cac92919061333c565b5087601a6002019080519060200190611cc692919061333c565b5086601a6003019080519060200190611ce092919061333c565b5085601a6004019080519060200190611cfa92919061333c565b5084601a6005019080519060200190611d1492919061333c565b5083601a6006019080519060200190611d2e92919061333c565b5082601a6007019080519060200190611d4892919061333c565b5081601a6008019080519060200190611d6292919061333c565b5080601a6009019080519060200190611d7c92919061333c565b5050505050505050505050565b600d8054600181600116156101000203166002900480601f016020809104026020016040519081016040528092919081815260200182805460018160011615610100020316600290048015611e1f5780601f10611df457610100808354040283529160200191611e1f565b820191906000526020600020905b815481529060010190602001808311611e0257829003601f168201915b505050505081565b806000806101000a81548160ff02191690836003811115611e4457fe5b02179055507f6c6b704435ce5cf188c70ed4ad176105ee7c7287c2e065a1d3b87c1e33ea030e8160405180826003811115611e7b57fe5b60ff16815260200191505060405180910390a150565b60068054600181600116156101000203166002900480601f016020809104026020016040519081016040528092919081815260200182805460018160011615610100020316600290048015611f275780601f10611efc57610100808354040283529160200191611f27565b820191906000526020600020905b815481529060010190602001808311611f0a57829003601f168201915b505050505081565b611f376133bc565b611f3f6133bc565b611f476133bc565b611f4f6133bc565b611f576133bc565b611f5f6133bc565b601a600001601a600101601a600201601a600301601a600401601a600501858054600181600116156101000203166002900480601f0160208091040260200160405190810160405280929190818152602001828054600181600116156101000203166002900480156120125780601f10611fe757610100808354040283529160200191612012565b820191906000526020600020905b815481529060010190602001808311611ff557829003601f168201915b50505050509550848054600181600116156101000203166002900480601f0160208091040260200160405190810160405280929190818152602001828054600181600116156101000203166002900480156120ae5780601f10612083576101008083540402835291602001916120ae565b820191906000526020600020905b81548152906001019060200180831161209157829003601f168201915b50505050509450838054600181600116156101000203166002900480601f01602080910402602001604051908101604052809291908181526020018280546001816001161561010002031660029004801561214a5780601f1061211f5761010080835404028352916020019161214a565b820191906000526020600020905b81548152906001019060200180831161212d57829003601f168201915b50505050509350828054600181600116156101000203166002900480601f0160208091040260200160405190810160405280929190818152602001828054600181600116156101000203166002900480156121e65780601f106121bb576101008083540402835291602001916121e6565b820191906000526020600020905b8154815290600101906020018083116121c957829003601f168201915b50505050509250818054600181600116156101000203166002900480601f0160208091040260200160405190810160405280929190818152602001828054600181600116156101000203166002900480156122825780601f1061225757610100808354040283529160200191612282565b820191906000526020600020905b81548152906001019060200180831161226557829003601f168201915b50505050509150808054600181600116156101000203166002900480601f01602080910402602001604051908101604052809291908181526020018280546001816001161561010002031660029004801561231e5780601f106122f35761010080835404028352916020019161231e565b820191906000526020600020905b81548152906001019060200180831161230157829003601f168201915b50505050509050955095509550955095509550909192939495565b600080600080601160050154601160060154601160070154601160080154935093509350935090919293565b60088054600181600116156101000203166002900480601f0160208091040260200160405190810160405280929190818152602001828054600181600116156101000203166002900480156123fb5780601f106123d0576101008083540402835291602001916123fb565b820191906000526020600020905b8154815290600101906020018083116123de57829003601f168201915b505050505081565b60058054600181600116156101000203166002900480601f0160208091040260200160405190810160405280929190818152602001828054600181600116156101000203166002900480156124995780601f1061246e57610100808354040283529160200191612499565b820191906000526020600020905b81548152906001019060200180831161247c57829003601f168201915b505050505081565b6124a96133bc565b6124b16133bc565b6124b96133bc565b6124c16133bc565b601a600601601a600701601a600801601a600901838054600181600116156101000203166002900480601f01602080910402602001604051908101604052809291908181526020018280546001816001161561010002031660029004801561256a5780601f1061253f5761010080835404028352916020019161256a565b820191906000526020600020905b81548152906001019060200180831161254d57829003601f168201915b50505050509350828054600181600116156101000203166002900480601f0160208091040260200160405190810160405280929190818152602001828054600181600116156101000203166002900480156126065780601f106125db57610100808354040283529160200191612606565b820191906000526020600020905b8154815290600101906020018083116125e957829003601f168201915b50505050509250818054600181600116156101000203166002900480601f0160208091040260200160405190810160405280929190818152602001828054600181600116156101000203166002900480156126a25780601f10612677576101008083540402835291602001916126a2565b820191906000526020600020905b81548152906001019060200180831161268557829003601f168201915b50505050509150808054600181600116156101000203166002900480601f01602080910402602001604051908101604052809291908181526020018280546001816001161561010002031660029004801561273e5780601f106127135761010080835404028352916020019161273e565b820191906000526020600020905b81548152906001019060200180831161272157829003601f168201915b50505050509050935093509350935090919293565b806008908051906020019061276992919061333c565b50876001908051906020019061278092919061333c565b5086600260006101000a81548163ffffffff021916908363ffffffff16021790555085600390805190602001906127b892919061333c565b5084600490805190602001906127cf92919061333c565b5083600590805190602001906127e692919061333c565b5082600690805190602001906127fd92919061333c565b50816007908051906020019061281492919061333c565b505050505050505050565b6128276133bc565b61282f6133bc565b60246000016024600101818054600181600116156101000203166002900480601f0160208091040260200160405190810160405280929190818152602001828054600181600116156101000203166002900480156128ce5780601f106128a3576101008083540402835291602001916128ce565b820191906000526020600020905b8154815290600101906020018083116128b157829003601f168201915b50505050509150808054600181600116156101000203166002900480601f01602080910402602001604051908101604052809291908181526020018280546001816001161561010002031660029004801561296a5780601f1061293f5761010080835404028352916020019161296a565b820191906000526020600020905b81548152906001019060200180831161294d57829003601f168201915b50505050509050915091509091565b60108054600181600116156101000203166002900480601f016020809104026020016040519081016040528092919081815260200182805460018160011615610100020316600290048015612a0f5780601f106129e457610100808354040283529160200191612a0f565b820191906000526020600020905b8154815290600101906020018083116129f257829003601f168201915b505050505081565b6000806003811115612a2557fe5b6000809054906101000a900460ff166003811115612a3f57fe5b141515612a4b57600080fd5b8115612a9c577f6c6b704435ce5cf188c70ed4ad176105ee7c7287c2e065a1d3b87c1e33ea030e600260405180826003811115612a8457fe5b60ff16815260200191505060405180910390a1612ae3565b7f6c6b704435ce5cf188c70ed4ad176105ee7c7287c2e065a1d3b87c1e33ea030e600160405180826003811115612acf57fe5b60ff16815260200191505060405180910390a15b60019050919050565b600f8054600181600116156101000203166002900480601f016020809104026020016040519081016040528092919081815260200182805460018160011615610100020316600290048015612b825780601f10612b5757610100808354040283529160200191612b82565b820191906000526020600020905b815481529060010190602001808311612b6557829003601f168201915b505050505081565b612b926133bc565b612b9a6133bc565b600060096001016009600201600960000154828054600181600116156101000203166002900480601f016020809104026020016040519081016040528092919081815260200182805460018160011615610100020316600290048015612c415780601f10612c1657610100808354040283529160200191612c41565b820191906000526020600020905b815481529060010190602001808311612c2457829003601f168201915b50505050509250818054600181600116156101000203166002900480601f016020809104026020016040519081016040528092919081815260200182805460018160011615610100020316600290048015612cdd5780601f10612cb257610100808354040283529160200191612cdd565b820191906000526020600020905b815481529060010190602001808311612cc057829003601f168201915b50505050509150925092509250909192565b86600c9080519060200190612d0592919061333c565b5085600d9080519060200190612d1c92919061333c565b5084600e8190555083600f9080519060200190612d3a92919061333c565b508260109080519060200190612d5192919061333c565b50426009600001819055508160096002019080519060200190612d7592919061333c565b508060096001019080519060200190612d8f92919061333c565b5050505050505050565b60048054600181600116156101000203166002900480601f016020809104026020016040519081016040528092919081815260200182805460018160011615610100020316600290048015612e2f5780601f10612e0457610100808354040283529160200191612e2f565b820191906000526020600020905b815481529060010190602001808311612e1257829003601f168201915b505050505081565b600e5481565b600260009054906101000a900463ffffffff1681565b600c8054600181600116156101000203166002900480601f016020809104026020016040519081016040528092919081815260200182805460018160011615610100020316600290048015612ee95780601f10612ebe57610100808354040283529160200191612ee9565b820191906000526020600020905b815481529060010190602001808311612ecc57829003601f168201915b505050505081565b8860116000019080519060200190612f0a92919061333c565b508760116001019080519060200190612f2492919061333c565b508660116002019080519060200190612f3e92919061333c565b508560116003019080519060200190612f5892919061333c565b508460116004019080519060200190612f7292919061333c565b5083601160050181905550826011600601819055508160116007018190555080601160080181905550505050505050505050565b8160246000019080519060200190612fbf92919061333c565b508060246001019080519060200190612fd992919061333c565b505050565b612fe66133bc565b612fee6133bc565b612ff66133bc565b612ffe6133bc565b6130066133bc565b60116000016011600101601160020160116003016011600401848054600181600116156101000203166002900480601f0160208091040260200160405190810160405280929190818152602001828054600181600116156101000203166002900480156130b45780601f10613089576101008083540402835291602001916130b4565b820191906000526020600020905b81548152906001019060200180831161309757829003601f168201915b50505050509450838054600181600116156101000203166002900480601f0160208091040260200160405190810160405280929190818152602001828054600181600116156101000203166002900480156131505780601f1061312557610100808354040283529160200191613150565b820191906000526020600020905b81548152906001019060200180831161313357829003601f168201915b50505050509350828054600181600116156101000203166002900480601f0160208091040260200160405190810160405280929190818152602001828054600181600116156101000203166002900480156131ec5780601f106131c1576101008083540402835291602001916131ec565b820191906000526020600020905b8154815290600101906020018083116131cf57829003601f168201915b50505050509250818054600181600116156101000203166002900480601f0160208091040260200160405190810160405280929190818152602001828054600181600116156101000203166002900480156132885780601f1061325d57610100808354040283529160200191613288565b820191906000526020600020905b81548152906001019060200180831161326b57829003601f168201915b50505050509150808054600181600116156101000203166002900480601f0160208091040260200160405190810160405280929190818152602001828054600181600116156101000203166002900480156133245780601f106132f957610100808354040283529160200191613324565b820191906000526020600020905b81548152906001019060200180831161330757829003601f168201915b50505050509050945094509450945094509091929394565b828054600181600116156101000203166002900490600052602060002090601f016020900481019282601f1061337d57805160ff19168380011785556133ab565b828001600101855582156133ab579182015b828111156133aa57825182559160200191906001019061338f565b5b5090506133b891906133d0565b5090565b602060405190810160405280600081525090565b6133f291905b808211156133ee5760008160009055506001016133d6565b5090565b905600a165627a7a72305820cee11451d7439d380a13be70ce9ec4645b0e350542b60ca91ec6b035d9430fd20029",
  "source": "pragma solidity ^0.4.18;\n\ncontract BuilderCert {\n\tevent CertStateChanged(ContractStates newState);\n\t\n    enum ContractStates {Initiated, OwnerVerify, Completed, Signed }\n\tContractStates State;\n    struct PowerOfAttorney {\n        uint DateOfPOA;\n        string NameOfSignatory;\n        string DesignationOfSignatory;\n    }\n\n    string public NameOfShip = \"\";\t\n    uint32 public IMO = 0;\n\tstring public OfficialNo = \"\";\n    string public ShipownerName = \"\";\n    string public ShopownerAddress =\"\";\n\tstring public CallSign = \"\";\n\tstring public ClassSociety = \"\";\n\tstring public ScreenshotHash = \"\";\n\tfunction RequestBuilderCert(string nameOfShip, uint32 imo, string officialNo,\n\t\t\t\t\t\t\tstring shipownerName, string shipAddress,\n\t\t\t\t\t\t\tstring callsign, string classSociety,\n\t\t\t\t\t\t\tstring hashString) public payable {\n\t\tScreenshotHash = hashString;\n\t\tNameOfShip = nameOfShip;\t\n\t\tIMO = imo;\n\t\tOfficialNo = officialNo;\n\t\tShipownerName = shipownerName;\n\t\tShopownerAddress = shipAddress;\n\t\tCallSign = callsign;\n\t\tClassSociety = classSociety;\n\t}\n    PowerOfAttorney POA;\n\tstring public ShipyardName = \"\";\n    string public ShipyardAddress;\n    uint public HULLNumber = 0;\n\tstring public Country = \"\";\n\tstring public HullMaterial = \"\";\n\n\tfunction SubmitBuilderCertVerification (string shipyardName, string shipyardAddress,\n\t\t\t\t\t\t\t\t\tuint hullNumber, string country, string hullMaterial,\n\t\t\t\t\t\t\t\t\tstring designation, string singatory) public payable {\n\t\tShipyardName = shipyardName;\n\t\tShipyardAddress = shipyardAddress;\n\t\tHULLNumber = hullNumber;\n\t\tCountry = country;\n\t\tHullMaterial = hullMaterial;\n\t\tPOA.DateOfPOA = now;\n\t\tPOA.DesignationOfSignatory = designation;\n\t\tPOA.NameOfSignatory = singatory;\n\n\t}\n\n    struct ShipownerInfo {\n        string MobileNo;\n\t\tstring PhoneNo;\n\t\tstring EMail;\n\t\tstring Country;\n\t\tstring Nationality;\n\t\tuint NumberOfShares;\n\t\tuint PaidUpCapital;\t//PUC * 100\n\t\tuint LocalEquity;\t//LE * 100\n\t\tuint ForeignhEquity;\t//FE * 100\n    }\n\tShipownerInfo Shipowner;\n\n\tfunction UpdateShipownerInfo (string mobileNo, string phoneNo, string email, string country,\n\t\t\t\t\t\t\t\t\tstring nationality, uint numberOfShares, uint paidUpCapital,\n\t\t\t\t\t\t\t\t\tuint localEquity, uint foreignEquity) public payable {\n\t\tShipowner.MobileNo = mobileNo;\n\t\tShipowner.PhoneNo = phoneNo;\n\t\tShipowner.EMail = email;\n\t\tShipowner.Country = country;\n\t\tShipowner.Nationality = nationality;\n\t\tShipowner.NumberOfShares = numberOfShares;\n\t\tShipowner.PaidUpCapital = paidUpCapital;\n\t\tShipowner.LocalEquity = localEquity;\n\t\tShipowner.ForeignhEquity = foreignEquity;\n\t}\n\t\n\tfunction GetShipownerContactInfo() public returns (string, string, string, string, string) {\n\t\treturn (\n\t\t\tShipowner.MobileNo,\n\t\t\tShipowner.PhoneNo,\n\t\t\tShipowner.EMail,\n\t\t\tShipowner.Country,\n\t\t\tShipowner.Nationality\n\t\t);\n\t}\n\t\n\tfunction GetShipownerInfo() public returns (uint, uint, uint, uint) {\n\t\treturn (\n\t\t\tShipowner.NumberOfShares,\n\t\t\tShipowner.PaidUpCapital,\n\t\t\tShipowner.LocalEquity,\n\t\t\tShipowner.ForeignhEquity\n\t\t);\n\t}\n\t\n\tstruct ManagerInfo {\n\t\tstring Name;\n\t\tstring Address;\n\t\tstring MobileNo;\n\t\tstring PhoneNo;\n\t\tstring EMail;\n\t\tstring ContractPerson;\n\t\tstring StatusInCompany;\n\t\tstring AccountNumber;\n\t\tstring UEN;\n\t\tstring ISMCompanyName;\n\t}\n\tManagerInfo Manager;\n\t\n\tfunction UpdateManagerInfo (string name, string addr,string mobileNo,\n\t\t\t\t\t\t\tstring phoneNo,string eMail, string contractPerson,\n\t\t\t\t\t\t\tstring statusInCompany,string accountNumber,string uem,\n\t\t\t\t\t\t\tstring ismCompanyName) public payable {\n\t\tManager.Name = name;\n\t\tManager.Address = addr;\n\t\tManager.MobileNo = mobileNo;\n\t\tManager.PhoneNo = phoneNo;\n\t\tManager.EMail = eMail;\n\t\tManager.ContractPerson = contractPerson;\n\t\tManager.StatusInCompany = statusInCompany;\n\t\tManager.AccountNumber = accountNumber;\n\t\tManager.UEN = uem;\n\t\tManager.ISMCompanyName = ismCompanyName;\n\t}\n\t\n\tfunction GetManagerContactInfo () public returns (string, string, string, string, string, string) {\n\t\treturn (\n\t\t\tManager.Name,\n\t\t\tManager.Address ,\n\t\t\tManager.MobileNo ,\n\t\t\tManager.PhoneNo,\n\t\t\tManager.EMail,\n\t\t\tManager.ContractPerson\n\t\t);\n\t}\n\t\n\tfunction GetManagerInfo () public returns (string, string, string, string) {\n\t\treturn (\n\t\t\tManager.StatusInCompany,\n\t\t\tManager.AccountNumber,\n\t\t\tManager.UEN,\n\t\t\tManager.ISMCompanyName\n\t\t);\n\t}\n\t\n\tstruct SupportingDocuments {\n\t\tstring ACRA;\n\t\tstring BuilderCert;\n\t}\n\tSupportingDocuments SupportingDocs;\n\n\tfunction UpdateDocuments (string acra, string builderCert) public payable {\n\t\tSupportingDocs.ACRA = acra;\n\t\tSupportingDocs.BuilderCert = builderCert;\n\t}\n\tfunction GetSupportingDocsInfo () returns (string, string){\n\t\treturn (SupportingDocs.ACRA , SupportingDocs.BuilderCert);\n\t}\n    function BuilderCert() {\n\t\tState = ContractStates.Initiated;\n    }\n\n\tfunction Sign(string nameOfSignatory, string designationOfSignatory) public returns (bool) {\n\t\t/*require(\n\t\t\t!stringsEqual(nameOfSignatory,\"\") &&\n\t\t\t!stringsEqual(designationOfSignatory,\"\"));\n\n\t\trequire( !stringsEqual(\"\", NameOfShip) && \n                (IMO > 0) && \n                (HULLNumber > 0) && !stringsEqual(\"\",ShipownerName) &&\n\t\t\t\t!stringsEqual(\"\",ShopownerAddress) &&\n\t\t\t\tDateOfIssue > 0 &&\n\t\t\t\tDateOfExpiry > 0 &&\n\t\t\t\t!stringsEqual(\"\",ShipyardAddress) &&\n\t\t\t\tState == ContractStates.Completed);*/\n\t\tPOA.DateOfPOA = now;\n\t\tPOA.NameOfSignatory = nameOfSignatory;\n\t\tPOA.DesignationOfSignatory = designationOfSignatory;\n\t\tChangeState(ContractStates.Signed);\n\t\treturn true;\n\t}\n\tfunction GetPOA () public returns (string ,string, uint){\n\t\treturn (POA.NameOfSignatory, POA.DesignationOfSignatory, POA.DateOfPOA);\n\t}\n\tfunction ChangeState(ContractStates newState) {\n\t\tState = newState;\n\t\tCertStateChanged(newState);\n\t}\n\tfunction Verify(bool verifyResult) public returns (bool) {\n\t\trequire(State == ContractStates.Initiated);\n\t\t\n\t\tif(verifyResult) {\n\t\t\tCertStateChanged(ContractStates.Completed);\n\t\t} else {\n\t\t\tCertStateChanged(ContractStates.OwnerVerify);\n\t\t}\n\t\t\n\t\treturn true;\n\t}\n}\n\n\n\n",
  "sourcePath": "/home/azureuser/mpa02/hdapp/app/contracts/BuilderCert.sol",
  "compiler": {
    "name": "solc",
    "version": "0.4.18+commit.9cf6e910.Emscripten.clang"
  },
  "schemaVersion": "1.0.1",
  "updatedAt": "2018-05-10T11:14:21.389Z"
}