{
  "contractName": "ProvisionalRegistration",
  "abi": [
    {
      "constant": true,
      "inputs": [],
      "name": "NameOfShip",
      "outputs": [
        {
          "name": "",
          "type": "string"
        }
      ],
      "payable": false,
      "stateMutability": "view",
      "type": "function"
    },
    {
      "constant": false,
      "inputs": [
        {
          "name": "imo",
          "type": "uint256"
        },
        {
          "name": "certNo",
          "type": "string"
        },
        {
          "name": "shipName",
          "type": "string"
        },
        {
          "name": "length",
          "type": "uint256"
        },
        {
          "name": "breadth",
          "type": "uint256"
        },
        {
          "name": "depth",
          "type": "uint256"
        },
        {
          "name": "owner",
          "type": "string"
        },
        {
          "name": "issueDate",
          "type": "uint256"
        },
        {
          "name": "expiryDate",
          "type": "uint256"
        }
      ],
      "name": "NewProvisionalRegistration",
      "outputs": [],
      "payable": false,
      "stateMutability": "nonpayable",
      "type": "function"
    },
    {
      "constant": true,
      "inputs": [],
      "name": "Depth",
      "outputs": [
        {
          "name": "",
          "type": "uint256"
        }
      ],
      "payable": false,
      "stateMutability": "view",
      "type": "function"
    },
    {
      "constant": true,
      "inputs": [],
      "name": "CertificateNo",
      "outputs": [
        {
          "name": "",
          "type": "string"
        }
      ],
      "payable": false,
      "stateMutability": "view",
      "type": "function"
    },
    {
      "constant": true,
      "inputs": [],
      "name": "IssueDate",
      "outputs": [
        {
          "name": "",
          "type": "uint256"
        }
      ],
      "payable": false,
      "stateMutability": "view",
      "type": "function"
    },
    {
      "constant": true,
      "inputs": [],
      "name": "Length",
      "outputs": [
        {
          "name": "",
          "type": "uint256"
        }
      ],
      "payable": false,
      "stateMutability": "view",
      "type": "function"
    },
    {
      "constant": false,
      "inputs": [],
      "name": "GetInfo",
      "outputs": [
        {
          "name": "",
          "type": "uint256"
        },
        {
          "name": "",
          "type": "string"
        },
        {
          "name": "",
          "type": "string"
        },
        {
          "name": "",
          "type": "uint256"
        },
        {
          "name": "",
          "type": "uint256"
        },
        {
          "name": "",
          "type": "uint256"
        },
        {
          "name": "",
          "type": "string"
        },
        {
          "name": "",
          "type": "uint256"
        },
        {
          "name": "",
          "type": "uint256"
        }
      ],
      "payable": false,
      "stateMutability": "nonpayable",
      "type": "function"
    },
    {
      "constant": true,
      "inputs": [],
      "name": "Breadth",
      "outputs": [
        {
          "name": "",
          "type": "uint256"
        }
      ],
      "payable": false,
      "stateMutability": "view",
      "type": "function"
    },
    {
      "constant": true,
      "inputs": [],
      "name": "Owner",
      "outputs": [
        {
          "name": "",
          "type": "string"
        }
      ],
      "payable": false,
      "stateMutability": "view",
      "type": "function"
    },
    {
      "constant": true,
      "inputs": [],
      "name": "IMO",
      "outputs": [
        {
          "name": "",
          "type": "uint256"
        }
      ],
      "payable": false,
      "stateMutability": "view",
      "type": "function"
    },
    {
      "constant": true,
      "inputs": [],
      "name": "ExpiryDate",
      "outputs": [
        {
          "name": "",
          "type": "uint256"
        }
      ],
      "payable": false,
      "stateMutability": "view",
      "type": "function"
    },
    {
      "inputs": [],
      "payable": false,
      "stateMutability": "nonpayable",
      "type": "constructor"
    }
  ],
  "bytecode": "0x60606040526000805560206040519081016040528060008152506001908051906020019061002e9291906100a6565b506020604051908101604052806000815250600290805190602001906100559291906100a6565b5060006003556000600455600060055560206040519081016040528060008152506006908051906020019061008b9291906100a6565b506000600755600060085534156100a157600080fd5b61014b565b828054600181600116156101000203166002900490600052602060002090601f016020900481019282601f106100e757805160ff1916838001178555610115565b82800160010185558215610115579182015b828111156101145782518255916020019190600101906100f9565b5b5090506101229190610126565b5090565b61014891905b8082111561014457600081600090555060010161012c565b5090565b90565b610b858061015a6000396000f3006060604052600436106100af576000357c0100000000000000000000000000000000000000000000000000000000900463ffffffff16806309e43230146100b45780631fb8ce18146101425780633153d3fc1461025b5780636be2536114610284578063735b3f8e14610312578063821728821461033b5780638418842a146103645780638ae435a0146104f4578063b4a99a4e1461051d578063da74a2d4146105ab578063f32a1130146105d4575b600080fd5b34156100bf57600080fd5b6100c76105fd565b6040518080602001828103825283818151815260200191508051906020019080838360005b838110156101075780820151818401526020810190506100ec565b50505050905090810190601f1680156101345780820380516001836020036101000a031916815260200191505b509250505060405180910390f35b341561014d57600080fd5b610259600480803590602001909190803590602001908201803590602001908080601f0160208091040260200160405190810160405280939291908181526020018383808284378201915050505050509190803590602001908201803590602001908080601f0160208091040260200160405190810160405280939291908181526020018383808284378201915050505050509190803590602001909190803590602001909190803590602001909190803590602001908201803590602001908080601f0160208091040260200160405190810160405280939291908181526020018383808284378201915050505050509190803590602001909190803590602001909190505061069b565b005b341561026657600080fd5b61026e610715565b6040518082815260200191505060405180910390f35b341561028f57600080fd5b61029761071b565b6040518080602001828103825283818151815260200191508051906020019080838360005b838110156102d75780820151818401526020810190506102bc565b50505050905090810190601f1680156103045780820380516001836020036101000a031916815260200191505b509250505060405180910390f35b341561031d57600080fd5b6103256107b9565b6040518082815260200191505060405180910390f35b341561034657600080fd5b61034e6107bf565b6040518082815260200191505060405180910390f35b341561036f57600080fd5b6103776107c5565b604051808a815260200180602001806020018981526020018881526020018781526020018060200186815260200185815260200184810384528c818151815260200191508051906020019080838360005b838110156103e35780820151818401526020810190506103c8565b50505050905090810190601f1680156104105780820380516001836020036101000a031916815260200191505b5084810383528b818151815260200191508051906020019080838360005b8381101561044957808201518184015260208101905061042e565b50505050905090810190601f1680156104765780820380516001836020036101000a031916815260200191505b50848103825287818151815260200191508051906020019080838360005b838110156104af578082015181840152602081019050610494565b50505050905090810190601f1680156104dc5780820380516001836020036101000a031916815260200191505b509c5050505050505050505050505060405180910390f35b34156104ff57600080fd5b6105076109f0565b6040518082815260200191505060405180910390f35b341561052857600080fd5b6105306109f6565b6040518080602001828103825283818151815260200191508051906020019080838360005b83811015610570578082015181840152602081019050610555565b50505050905090810190601f16801561059d5780820380516001836020036101000a031916815260200191505b509250505060405180910390f35b34156105b657600080fd5b6105be610a94565b6040518082815260200191505060405180910390f35b34156105df57600080fd5b6105e7610a9a565b6040518082815260200191505060405180910390f35b60028054600181600116156101000203166002900480601f0160208091040260200160405190810160405280929190818152602001828054600181600116156101000203166002900480156106935780601f1061066857610100808354040283529160200191610693565b820191906000526020600020905b81548152906001019060200180831161067657829003601f168201915b505050505081565b8860008190555087600190805190602001906106b8929190610aa0565b5086600290805190602001906106cf929190610aa0565b5085600381905550846004819055508360058190555082600690805190602001906106fb929190610aa0565b508160078190555080600881905550505050505050505050565b60055481565b60018054600181600116156101000203166002900480601f0160208091040260200160405190810160405280929190818152602001828054600181600116156101000203166002900480156107b15780601f10610786576101008083540402835291602001916107b1565b820191906000526020600020905b81548152906001019060200180831161079457829003601f168201915b505050505081565b60075481565b60035481565b60006107cf610b20565b6107d7610b20565b60008060006107e4610b20565b600080600054600160026003546004546005546006600754600854878054600181600116156101000203166002900480601f0160208091040260200160405190810160405280929190818152602001828054600181600116156101000203166002900480156108945780601f1061086957610100808354040283529160200191610894565b820191906000526020600020905b81548152906001019060200180831161087757829003601f168201915b50505050509750868054600181600116156101000203166002900480601f0160208091040260200160405190810160405280929190818152602001828054600181600116156101000203166002900480156109305780601f1061090557610100808354040283529160200191610930565b820191906000526020600020905b81548152906001019060200180831161091357829003601f168201915b50505050509650828054600181600116156101000203166002900480601f0160208091040260200160405190810160405280929190818152602001828054600181600116156101000203166002900480156109cc5780601f106109a1576101008083540402835291602001916109cc565b820191906000526020600020905b8154815290600101906020018083116109af57829003601f168201915b50505050509250985098509850985098509850985098509850909192939495969798565b60045481565b60068054600181600116156101000203166002900480601f016020809104026020016040519081016040528092919081815260200182805460018160011615610100020316600290048015610a8c5780601f10610a6157610100808354040283529160200191610a8c565b820191906000526020600020905b815481529060010190602001808311610a6f57829003601f168201915b505050505081565b60005481565b60085481565b828054600181600116156101000203166002900490600052602060002090601f016020900481019282601f10610ae157805160ff1916838001178555610b0f565b82800160010185558215610b0f579182015b82811115610b0e578251825591602001919060010190610af3565b5b509050610b1c9190610b34565b5090565b602060405190810160405280600081525090565b610b5691905b80821115610b52576000816000905550600101610b3a565b5090565b905600a165627a7a7230582032735c0caff2203bf70e49660d4eaf8e27b0e8af042353002fe4a17b4521000c0029",
  "source": "pragma solidity ^0.4.18;\n\ncontract ProvisionalRegistration {\n    uint public IMO = 0;\n    string public CertificateNo = \"\";\n    string public NameOfShip = \"\";\n    uint public Length = 0;\n    uint public Breadth = 0;\n    uint public Depth = 0;\n    string public Owner = \"\";\n    uint public IssueDate = 0;\n    uint public ExpiryDate = 0;\n\n    function ProvisionalRegistration(){\n\n    }\n\n    function GetInfo () public returns (uint, string, string, uint, uint, uint, string, uint, uint) {\n        return (IMO, CertificateNo, NameOfShip, Length, Breadth, Depth, Owner, IssueDate, ExpiryDate);\n    }\n\n    function NewProvisionalRegistration(uint imo, string certNo, string shipName, uint length, uint breadth,\n                                uint depth, string owner, uint issueDate, uint expiryDate) {\n        IMO = imo;\n        CertificateNo = certNo;\n        NameOfShip = shipName;\n        Length = length;\n        Breadth = breadth;\n        Depth = depth;\n        Owner = owner;\n        IssueDate = issueDate;\n        ExpiryDate = expiryDate;\n    }    \n}\n",
  "sourcePath": "/home/azureuser/mpa02/hdapp/app/contracts/ProvisionalRegistration.sol",
  "compiler": {
    "name": "solc",
    "version": "0.4.18+commit.9cf6e910.Emscripten.clang"
  },
  "schemaVersion": "1.0.1",
  "updatedAt": "2018-05-10T11:14:21.417Z"
}