{
  "contractName": "ProvisionalClassification",
  "abi": [
    {
      "constant": false,
      "inputs": [
        {
          "name": "shipName",
          "type": "string"
        },
        {
          "name": "callsign",
          "type": "string"
        },
        {
          "name": "imo",
          "type": "uint256"
        },
        {
          "name": "officialNo",
          "type": "string"
        }
      ],
      "name": "CreateProvisionClassCert",
      "outputs": [],
      "payable": true,
      "stateMutability": "payable",
      "type": "function"
    },
    {
      "constant": false,
      "inputs": [],
      "name": "GetEngineInfo",
      "outputs": [
        {
          "name": "",
          "type": "uint256"
        },
        {
          "name": "",
          "type": "uint256"
        },
        {
          "name": "",
          "type": "uint256"
        },
        {
          "name": "",
          "type": "string"
        },
        {
          "name": "",
          "type": "string"
        },
        {
          "name": "",
          "type": "string"
        },
        {
          "name": "",
          "type": "string"
        },
        {
          "name": "",
          "type": "string"
        },
        {
          "name": "",
          "type": "uint256"
        }
      ],
      "payable": false,
      "stateMutability": "nonpayable",
      "type": "function"
    },
    {
      "constant": false,
      "inputs": [
        {
          "name": "numberOfEngines",
          "type": "uint256"
        },
        {
          "name": "numberOfShafts",
          "type": "uint256"
        },
        {
          "name": "bhp",
          "type": "uint256"
        },
        {
          "name": "engineMaker",
          "type": "string"
        },
        {
          "name": "country",
          "type": "string"
        },
        {
          "name": "engineFuelType",
          "type": "string"
        },
        {
          "name": "yearMade",
          "type": "string"
        },
        {
          "name": "model",
          "type": "string"
        },
        {
          "name": "speedOfShips",
          "type": "uint256"
        }
      ],
      "name": "UpdateEngineInfo",
      "outputs": [],
      "payable": true,
      "stateMutability": "payable",
      "type": "function"
    },
    {
      "constant": false,
      "inputs": [
        {
          "name": "shipType",
          "type": "string"
        },
        {
          "name": "length",
          "type": "uint256"
        },
        {
          "name": "depth",
          "type": "uint256"
        },
        {
          "name": "breath",
          "type": "uint256"
        },
        {
          "name": "mmsi",
          "type": "string"
        },
        {
          "name": "gt",
          "type": "string"
        },
        {
          "name": "nt",
          "type": "string"
        },
        {
          "name": "issueDate",
          "type": "uint256"
        },
        {
          "name": "expiryDate",
          "type": "uint256"
        },
        {
          "name": "keelLaidDate",
          "type": "uint256"
        }
      ],
      "name": "UpdateShipInfo",
      "outputs": [],
      "payable": true,
      "stateMutability": "payable",
      "type": "function"
    },
    {
      "constant": false,
      "inputs": [],
      "name": "GetShipInformation",
      "outputs": [
        {
          "name": "",
          "type": "uint256"
        },
        {
          "name": "",
          "type": "uint256"
        },
        {
          "name": "",
          "type": "string"
        },
        {
          "name": "",
          "type": "string"
        },
        {
          "name": "",
          "type": "string"
        },
        {
          "name": "",
          "type": "uint256"
        },
        {
          "name": "",
          "type": "uint256"
        },
        {
          "name": "",
          "type": "uint256"
        },
        {
          "name": "",
          "type": "uint256"
        },
        {
          "name": "",
          "type": "string"
        }
      ],
      "payable": false,
      "stateMutability": "nonpayable",
      "type": "function"
    },
    {
      "constant": true,
      "inputs": [],
      "name": "OfficialNumber",
      "outputs": [
        {
          "name": "",
          "type": "string"
        }
      ],
      "payable": false,
      "stateMutability": "view",
      "type": "function"
    },
    {
      "constant": true,
      "inputs": [],
      "name": "Callsign",
      "outputs": [
        {
          "name": "",
          "type": "string"
        }
      ],
      "payable": false,
      "stateMutability": "view",
      "type": "function"
    },
    {
      "constant": true,
      "inputs": [],
      "name": "ShipName",
      "outputs": [
        {
          "name": "",
          "type": "string"
        }
      ],
      "payable": false,
      "stateMutability": "view",
      "type": "function"
    },
    {
      "constant": true,
      "inputs": [],
      "name": "IMO",
      "outputs": [
        {
          "name": "",
          "type": "uint256"
        }
      ],
      "payable": false,
      "stateMutability": "view",
      "type": "function"
    }
  ],
  "bytecode": "0x60606040526020604051908101604052806000815250600090805190602001906200002c92919062000096565b506020604051908101604052806000815250600190805190602001906200005592919062000096565b5060006002556020604051908101604052806000815250600390805190602001906200008392919062000096565b5034156200009057600080fd5b62000145565b828054600181600116156101000203166002900490600052602060002090601f016020900481019282601f10620000d957805160ff19168380011785556200010a565b828001600101855582156200010a579182015b8281111562000109578251825591602001919060010190620000ec565b5b5090506200011991906200011d565b5090565b6200014291905b808211156200013e57600081600090555060010162000124565b5090565b90565b61157980620001556000396000f300606060405260043610610099576000357c0100000000000000000000000000000000000000000000000000000000900463ffffffff1680632970e4ee1461009e5780632aaccbfc1461017f57806343e551dc146103d957806347ae87671461055b57806376da1a0b146106ac57806387c39386146108a8578063b07a46b114610936578063c97ea986146109c4578063da74a2d414610a52575b600080fd5b61017d600480803590602001908201803590602001908080601f0160208091040260200160405190810160405280939291908181526020018383808284378201915050505050509190803590602001908201803590602001908080601f0160208091040260200160405190810160405280939291908181526020018383808284378201915050505050509190803590602001909190803590602001908201803590602001908080601f01602080910402602001604051908101604052809392919081815260200183838082843782019150505050505091905050610a7b565b005b341561018a57600080fd5b610192610ad7565b604051808a8152602001898152602001888152602001806020018060200180602001806020018060200187815260200186810386528c818151815260200191508051906020019080838360005b838110156101fa5780820151818401526020810190506101df565b50505050905090810190601f1680156102275780820380516001836020036101000a031916815260200191505b5086810385528b818151815260200191508051906020019080838360005b83811015610260578082015181840152602081019050610245565b50505050905090810190601f16801561028d5780820380516001836020036101000a031916815260200191505b5086810384528a818151815260200191508051906020019080838360005b838110156102c65780820151818401526020810190506102ab565b50505050905090810190601f1680156102f35780820380516001836020036101000a031916815260200191505b50868103835289818151815260200191508051906020019080838360005b8381101561032c578082015181840152602081019050610311565b50505050905090810190601f1680156103595780820380516001836020036101000a031916815260200191505b50868103825288818151815260200191508051906020019080838360005b83811015610392578082015181840152602081019050610377565b50505050905090810190601f1680156103bf5780820380516001836020036101000a031916815260200191505b509e50505050505050505050505050505060405180910390f35b610559600480803590602001909190803590602001909190803590602001909190803590602001908201803590602001908080601f0160208091040260200160405190810160405280939291908181526020018383808284378201915050505050509190803590602001908201803590602001908080601f0160208091040260200160405190810160405280939291908181526020018383808284378201915050505050509190803590602001908201803590602001908080601f0160208091040260200160405190810160405280939291908181526020018383808284378201915050505050509190803590602001908201803590602001908080601f0160208091040260200160405190810160405280939291908181526020018383808284378201915050505050509190803590602001908201803590602001908080601f01602080910402602001604051908101604052809392919081815260200183838082843782019150505050505091908035906020019091905050610e60565b005b6106aa600480803590602001908201803590602001908080601f0160208091040260200160405190810160405280939291908181526020018383808284378201915050505050509190803590602001909190803590602001909190803590602001909190803590602001908201803590602001908080601f0160208091040260200160405190810160405280939291908181526020018383808284378201915050505050509190803590602001908201803590602001908080601f0160208091040260200160405190810160405280939291908181526020018383808284378201915050505050509190803590602001908201803590602001908080601f01602080910402602001604051908101604052809392919081815260200183838082843782019150505050505091908035906020019091908035906020019091908035906020019091905050610f15565b005b34156106b757600080fd5b6106bf610fc4565b604051808b81526020018a81526020018060200180602001806020018981526020018881526020018781526020018681526020018060200185810385528d818151815260200191508051906020019080838360005b8381101561072f578082015181840152602081019050610714565b50505050905090810190601f16801561075c5780820380516001836020036101000a031916815260200191505b5085810384528c818151815260200191508051906020019080838360005b8381101561079557808201518184015260208101905061077a565b50505050905090810190601f1680156107c25780820380516001836020036101000a031916815260200191505b5085810383528b818151815260200191508051906020019080838360005b838110156107fb5780820151818401526020810190506107e0565b50505050905090810190601f1680156108285780820380516001836020036101000a031916815260200191505b50858103825286818151815260200191508051906020019080838360005b83811015610861578082015181840152602081019050610846565b50505050905090810190601f16801561088e5780820380516001836020036101000a031916815260200191505b509e50505050505050505050505050505060405180910390f35b34156108b357600080fd5b6108bb6112b4565b6040518080602001828103825283818151815260200191508051906020019080838360005b838110156108fb5780820151818401526020810190506108e0565b50505050905090810190601f1680156109285780820380516001836020036101000a031916815260200191505b509250505060405180910390f35b341561094157600080fd5b610949611352565b6040518080602001828103825283818151815260200191508051906020019080838360005b8381101561098957808201518184015260208101905061096e565b50505050905090810190601f1680156109b65780820380516001836020036101000a031916815260200191505b509250505060405180910390f35b34156109cf57600080fd5b6109d76113f0565b6040518080602001828103825283818151815260200191508051906020019080838360005b83811015610a175780820151818401526020810190506109fc565b50505050905090810190601f168015610a445780820380516001836020036101000a031916815260200191505b509250505060405180910390f35b3415610a5d57600080fd5b610a6561148e565b6040518082815260200191505060405180910390f35b8360009080519060200190610a91929190611494565b508260019080519060200190610aa8929190611494565b50816002819055508060039080519060200190610ac6929190611494565b504260046000018190555050505050565b6000806000610ae4611514565b610aec611514565b610af4611514565b610afc611514565b610b04611514565b6000600e60000154600e60010154600e60020154600e600301600e600401600e600501600e600601600e600701600e60080154858054600181600116156101000203166002900480601f016020809104026020016040519081016040528092919081815260200182805460018160011615610100020316600290048015610bcc5780601f10610ba157610100808354040283529160200191610bcc565b820191906000526020600020905b815481529060010190602001808311610baf57829003601f168201915b50505050509550848054600181600116156101000203166002900480601f016020809104026020016040519081016040528092919081815260200182805460018160011615610100020316600290048015610c685780601f10610c3d57610100808354040283529160200191610c68565b820191906000526020600020905b815481529060010190602001808311610c4b57829003601f168201915b50505050509450838054600181600116156101000203166002900480601f016020809104026020016040519081016040528092919081815260200182805460018160011615610100020316600290048015610d045780601f10610cd957610100808354040283529160200191610d04565b820191906000526020600020905b815481529060010190602001808311610ce757829003601f168201915b50505050509350828054600181600116156101000203166002900480601f016020809104026020016040519081016040528092919081815260200182805460018160011615610100020316600290048015610da05780601f10610d7557610100808354040283529160200191610da0565b820191906000526020600020905b815481529060010190602001808311610d8357829003601f168201915b50505050509250818054600181600116156101000203166002900480601f016020809104026020016040519081016040528092919081815260200182805460018160011615610100020316600290048015610e3c5780601f10610e1157610100808354040283529160200191610e3c565b820191906000526020600020905b815481529060010190602001808311610e1f57829003601f168201915b50505050509150985098509850985098509850985098509850909192939495969798565b88600e6000018190555087600e6001018190555086600e6002018190555085600e6003019080519060200190610e97929190611494565b5084600e6004019080519060200190610eb1929190611494565b5083600e6005019080519060200190610ecb929190611494565b5082600e6006019080519060200190610ee5929190611494565b5081600e6007019080519060200190610eff929190611494565b5080600e60080181905550505050505050505050565b82600460000181905550816004600101819055508460046003019080519060200190610f42929190611494565b5083600480019080519060200190610f5b929190611494565b508860046006018190555087600460070181905550866004600801819055508560046009019080519060200190610f93929190611494565b508960046002019080519060200190610fad929190611494565b508060046005018190555050505050505050505050565b600080610fcf611514565b610fd7611514565b610fdf611514565b600080600080610fed611514565b60046000015460046001015460046002016004600301600480016004600501546004600601546004600701546004600801546004600901878054600181600116156101000203166002900480601f0160208091040260200160405190810160405280929190818152602001828054600181600116156101000203166002900480156110b95780601f1061108e576101008083540402835291602001916110b9565b820191906000526020600020905b81548152906001019060200180831161109c57829003601f168201915b50505050509750868054600181600116156101000203166002900480601f0160208091040260200160405190810160405280929190818152602001828054600181600116156101000203166002900480156111555780601f1061112a57610100808354040283529160200191611155565b820191906000526020600020905b81548152906001019060200180831161113857829003601f168201915b50505050509650858054600181600116156101000203166002900480601f0160208091040260200160405190810160405280929190818152602001828054600181600116156101000203166002900480156111f15780601f106111c6576101008083540402835291602001916111f1565b820191906000526020600020905b8154815290600101906020018083116111d457829003601f168201915b50505050509550808054600181600116156101000203166002900480601f01602080910402602001604051908101604052809291908181526020018280546001816001161561010002031660029004801561128d5780601f106112625761010080835404028352916020019161128d565b820191906000526020600020905b81548152906001019060200180831161127057829003601f168201915b50505050509050995099509950995099509950995099509950995090919293949596979899565b60038054600181600116156101000203166002900480601f01602080910402602001604051908101604052809291908181526020018280546001816001161561010002031660029004801561134a5780601f1061131f5761010080835404028352916020019161134a565b820191906000526020600020905b81548152906001019060200180831161132d57829003601f168201915b505050505081565b60018054600181600116156101000203166002900480601f0160208091040260200160405190810160405280929190818152602001828054600181600116156101000203166002900480156113e85780601f106113bd576101008083540402835291602001916113e8565b820191906000526020600020905b8154815290600101906020018083116113cb57829003601f168201915b505050505081565b60008054600181600116156101000203166002900480601f0160208091040260200160405190810160405280929190818152602001828054600181600116156101000203166002900480156114865780601f1061145b57610100808354040283529160200191611486565b820191906000526020600020905b81548152906001019060200180831161146957829003601f168201915b505050505081565b60025481565b828054600181600116156101000203166002900490600052602060002090601f016020900481019282601f106114d557805160ff1916838001178555611503565b82800160010185558215611503579182015b828111156115025782518255916020019190600101906114e7565b5b5090506115109190611528565b5090565b602060405190810160405280600081525090565b61154a91905b8082111561154657600081600090555060010161152e565b5090565b905600a165627a7a7230582089869f90d13e4c895a5db075a1d4fe64f8fa04ca6ed2b69c892c1ef38c8a42af0029",
  "source": "pragma solidity ^0.4.18;\r\n\r\ncontract ProvisionalClassification {\r\n    string public ShipName = \"\";\r\n    string public Callsign = \"\";\r\n    uint public IMO = 0;\r\n    string public OfficialNumber = \"\";\r\n\r\n    function CreateProvisionClassCert (string shipName, string callsign, uint imo, string officialNo) public payable {\r\n        ShipName = shipName;\r\n        Callsign = callsign;\r\n        IMO = imo;\r\n        OfficialNumber = officialNo;\r\n        ShipInfo.DateOfIssue = now;\r\n    }\r\n    struct ShipInformation {\r\n        uint  DateOfIssue ;\r\n        uint  DateOfExpiry ;\r\n        string  VesselType ;\r\n        string  GrossTonnage;\r\n        string  NetTonnage;\r\n        uint  KeelLaidDate;//String ?\r\n        uint  Length; // 100 * meter\r\n        uint  Depth; // 100 * meter\r\n        uint  Breath ; // 100 * meter\r\n        string  MMSI;\r\n    }\r\n    ShipInformation ShipInfo;\r\n\r\n    function GetShipInformation () public returns (uint, uint, string, string, string, uint, uint, uint, uint, string) {\r\n        return (ShipInfo.DateOfIssue, ShipInfo.DateOfExpiry, ShipInfo.VesselType, ShipInfo.GrossTonnage, ShipInfo.NetTonnage, ShipInfo.KeelLaidDate, ShipInfo.Length, ShipInfo.Depth, ShipInfo.Breath, ShipInfo.MMSI);\r\n    }\r\n\r\n    function UpdateShipInfo(string shipType, uint length, uint depth, uint breath, string mmsi, string gt, string nt,\r\n                                uint issueDate, uint expiryDate, uint keelLaidDate) public payable {\r\n        ShipInfo.DateOfIssue = issueDate;\r\n        ShipInfo.DateOfExpiry = expiryDate;\r\n        ShipInfo.GrossTonnage = gt;\r\n        ShipInfo.NetTonnage = nt;\r\n        ShipInfo.Length = length;\r\n        ShipInfo.Depth = depth;\r\n        ShipInfo.Breath = breath;\r\n        ShipInfo.MMSI = mmsi;\r\n        ShipInfo.VesselType = shipType;\r\n        ShipInfo.KeelLaidDate = keelLaidDate;\r\n    }\r\n\r\n\r\n    struct EngineInformation {\r\n        uint NumberOfEngines;\r\n        uint NumberOfShafts;\r\n        uint BHP;\r\n        string EngineMaker;\r\n        string Country;\r\n        string EngineFuelType;\r\n        string YearMade;\r\n        string ModelOfEngine;\r\n        uint SpeedOfShips;\r\n    }\r\n    EngineInformation EngineInfo;\r\n    function UpdateEngineInfo (uint numberOfEngines, uint numberOfShafts, uint bhp,\r\n                            string engineMaker, string country, string engineFuelType,\r\n                            string yearMade, string model, uint speedOfShips) public payable {\r\n        EngineInfo.NumberOfEngines = numberOfEngines;\r\n        EngineInfo.NumberOfShafts = numberOfShafts;\r\n        EngineInfo.BHP = bhp;\r\n        EngineInfo.EngineMaker = engineMaker;\r\n        EngineInfo.Country = country;\r\n        EngineInfo.EngineFuelType = engineFuelType;\r\n        EngineInfo.YearMade = yearMade;\r\n        EngineInfo.ModelOfEngine = model;\r\n        EngineInfo.SpeedOfShips = speedOfShips;\r\n    }\r\n    function GetEngineInfo () returns (uint, uint, uint, string, string, string, string, string, uint) {\r\n        return (EngineInfo.NumberOfEngines, EngineInfo.NumberOfShafts,EngineInfo.BHP,EngineInfo.EngineMaker,EngineInfo.Country,EngineInfo.EngineFuelType,EngineInfo.YearMade,EngineInfo.ModelOfEngine,EngineInfo.SpeedOfShips);\r\n    }\r\n}",
  "sourcePath": "/home/azureuser/mpa02/hdapp/app/contracts/ProvisionalClassification.sol",
  "compiler": {
    "name": "solc",
    "version": "0.4.18+commit.9cf6e910.Emscripten.clang"
  },
  "schemaVersion": "1.0.1",
  "updatedAt": "2018-05-10T11:14:21.405Z"
}